{
  "_format": "hh-sol-artifact-1",
  "contractName": "MonadBotSwapper",
  "sourceName": "contracts/MonadBotSwapper.sol",
  "abi": [
    {
      "inputs": [
        {
          "internalType": "address",
          "name": "_router",
          "type": "address"
        },
        {
          "internalType": "address",
          "name": "_wmon",
          "type": "address"
        },
        {
          "internalType": "address",
          "name": "_feeRecipient",
          "type": "address"
        }
      ],
      "stateMutability": "nonpayable",
      "type": "constructor"
    },
    {
      "anonymous": false,
      "inputs": [
        {
          "indexed": false,
          "internalType": "uint256",
          "name": "newFeeBps",
          "type": "uint256"
        }
      ],
      "name": "FeeUpdated",
      "type": "event"
    },
    {
      "anonymous": false,
      "inputs": [
        {
          "indexed": true,
          "internalType": "address",
          "name": "user",
          "type": "address"
        },
        {
          "indexed": true,
          "internalType": "address",
          "name": "token",
          "type": "address"
        },
        {
          "indexed": false,
          "internalType": "uint256",
          "name": "monIn",
          "type": "uint256"
        },
        {
          "indexed": false,
          "internalType": "uint256",
          "name": "tokensOut",
          "type": "uint256"
        },
        {
          "indexed": false,
          "internalType": "uint256",
          "name": "fee",
          "type": "uint256"
        }
      ],
      "name": "TokensBought",
      "type": "event"
    },
    {
      "anonymous": false,
      "inputs": [
        {
          "indexed": true,
          "internalType": "address",
          "name": "user",
          "type": "address"
        },
        {
          "indexed": true,
          "internalType": "address",
          "name": "token",
          "type": "address"
        },
        {
          "indexed": false,
          "internalType": "uint256",
          "name": "tokensIn",
          "type": "uint256"
        },
        {
          "indexed": false,
          "internalType": "uint256",
          "name": "monOut",
          "type": "uint256"
        },
        {
          "indexed": false,
          "internalType": "uint256",
          "name": "fee",
          "type": "uint256"
        }
      ],
      "name": "TokensSold",
      "type": "event"
    },
    {
      "inputs": [
        {
          "internalType": "address",
          "name": "tokenOut",
          "type": "address"
        },
        {
          "internalType": "uint24",
          "name": "poolFee",
          "type": "uint24"
        },
        {
          "internalType": "uint256",
          "name": "amountOutMinimum",
          "type": "uint256"
        },
        {
          "internalType": "address",
          "name": "recipient",
          "type": "address"
        }
      ],
      "name": "buyTokens",
      "outputs": [
        {
          "internalType": "uint256",
          "name": "tokensOut",
          "type": "uint256"
        }
      ],
      "stateMutability": "payable",
      "type": "function"
    },
    {
      "inputs": [],
      "name": "feeBps",
      "outputs": [
        {
          "internalType": "uint256",
          "name": "",
          "type": "uint256"
        }
      ],
      "stateMutability": "view",
      "type": "function"
    },
    {
      "inputs": [],
      "name": "feeRecipient",
      "outputs": [
        {
          "internalType": "address",
          "name": "",
          "type": "address"
        }
      ],
      "stateMutability": "view",
      "type": "function"
    },
    {
      "inputs": [],
      "name": "owner",
      "outputs": [
        {
          "internalType": "address",
          "name": "",
          "type": "address"
        }
      ],
      "stateMutability": "view",
      "type": "function"
    },
    {
      "inputs": [],
      "name": "router",
      "outputs": [
        {
          "internalType": "address",
          "name": "",
          "type": "address"
        }
      ],
      "stateMutability": "view",
      "type": "function"
    },
    {
      "inputs": [
        {
          "internalType": "address",
          "name": "tokenIn",
          "type": "address"
        },
        {
          "internalType": "uint24",
          "name": "poolFee",
          "type": "uint24"
        },
        {
          "internalType": "uint256",
          "name": "amountIn",
          "type": "uint256"
        },
        {
          "internalType": "uint256",
          "name": "amountOutMinimum",
          "type": "uint256"
        },
        {
          "internalType": "address",
          "name": "recipient",
          "type": "address"
        }
      ],
      "name": "sellTokens",
      "outputs": [
        {
          "internalType": "uint256",
          "name": "monOut",
          "type": "uint256"
        }
      ],
      "stateMutability": "nonpayable",
      "type": "function"
    },
    {
      "inputs": [
        {
          "internalType": "uint256",
          "name": "_feeBps",
          "type": "uint256"
        }
      ],
      "name": "setFee",
      "outputs": [],
      "stateMutability": "nonpayable",
      "type": "function"
    },
    {
      "inputs": [
        {
          "internalType": "address",
          "name": "_recipient",
          "type": "address"
        }
      ],
      "name": "setFeeRecipient",
      "outputs": [],
      "stateMutability": "nonpayable",
      "type": "function"
    },
    {
      "inputs": [
        {
          "internalType": "address",
          "name": "newOwner",
          "type": "address"
        }
      ],
      "name": "transferOwnership",
      "outputs": [],
      "stateMutability": "nonpayable",
      "type": "function"
    },
    {
      "inputs": [],
      "name": "wmon",
      "outputs": [
        {
          "internalType": "address",
          "name": "",
          "type": "address"
        }
      ],
      "stateMutability": "view",
      "type": "function"
    },
    {
      "stateMutability": "payable",
      "type": "receive"
    }
  ],
  "bytecode": "0x6080604052606460045534801561001557600080fd5b50604051611c7d380380611c7d833981810160405281019061003791906101a5565b336000806101000a81548173ffffffffffffffffffffffffffffffffffffffff021916908373ffffffffffffffffffffffffffffffffffffffff16021790555082600160006101000a81548173ffffffffffffffffffffffffffffffffffffffff021916908373ffffffffffffffffffffffffffffffffffffffff16021790555081600260006101000a81548173ffffffffffffffffffffffffffffffffffffffff021916908373ffffffffffffffffffffffffffffffffffffffff16021790555080600360006101000a81548173ffffffffffffffffffffffffffffffffffffffff021916908373ffffffffffffffffffffffffffffffffffffffff1602179055505050506101f8565b600080fd5b600073ffffffffffffffffffffffffffffffffffffffff82169050919050565b600061017282610147565b9050919050565b61018281610167565b811461018d57600080fd5b50565b60008151905061019f81610179565b92915050565b6000806000606084860312156101be576101bd610142565b5b60006101cc86828701610190565b93505060206101dd86828701610190565b92505060406101ee86828701610190565b9150509250925092565b611a76806102076000396000f3fe6080604052600436106100955760003560e01c80637d86b8a5116100595780637d86b8a51461018d5780638da5cb5b146101b8578063e74b981b146101e3578063f2fde38b1461020c578063f887ea40146102355761009c565b806324a9d853146100a157806346904840146100cc57806359dbeefa146100f75780636589948e1461012757806369fe0e2d146101645761009c565b3661009c57005b600080fd5b3480156100ad57600080fd5b506100b6610260565b6040516100c39190611159565b60405180910390f35b3480156100d857600080fd5b506100e1610266565b6040516100ee91906111b5565b60405180910390f35b610111600480360381019061010c9190611268565b61028c565b60405161011e9190611159565b60405180910390f35b34801561013357600080fd5b5061014e600480360381019061014991906112cf565b6107cb565b60405161015b9190611159565b60405180910390f35b34801561017057600080fd5b5061018b6004803603810190610186919061134a565b610d3b565b005b34801561019957600080fd5b506101a2610e4f565b6040516101af91906111b5565b60405180910390f35b3480156101c457600080fd5b506101cd610e75565b6040516101da91906111b5565b60405180910390f35b3480156101ef57600080fd5b5061020a60048036038101906102059190611377565b610e99565b005b34801561021857600080fd5b50610233600480360381019061022e9190611377565b610fda565b005b34801561024157600080fd5b5061024a61111a565b60405161025791906111b5565b60405180910390f35b60045481565b600360009054906101000a900473ffffffffffffffffffffffffffffffffffffffff1681565b60008034116102d0576040517f08c379a00000000000000000000000000000000000000000000000000000000081526004016102c790611401565b60405180910390fd5b6000612710600454346102e39190611450565b6102ed91906114c1565b9050600081346102fd91906114f2565b905060008211156103d8576000600360009054906101000a900473ffffffffffffffffffffffffffffffffffffffff1673ffffffffffffffffffffffffffffffffffffffff168360405161035090611557565b60006040518083038185875af1925050503d806000811461038d576040519150601f19603f3d011682016040523d82523d6000602084013e610392565b606091505b50509050806103d6576040517f08c379a00000000000000000000000000000000000000000000000000000000081526004016103cd906115b8565b60405180910390fd5b505b600260009054906101000a900473ffffffffffffffffffffffffffffffffffffffff1673ffffffffffffffffffffffffffffffffffffffff1663d0e30db0826040518263ffffffff1660e01b81526004016000604051808303818588803b15801561044257600080fd5b505af1158015610456573d6000803e3d6000fd5b505050505080600260009054906101000a900473ffffffffffffffffffffffffffffffffffffffff1673ffffffffffffffffffffffffffffffffffffffff1663dd62ed3e30600160009054906101000a900473ffffffffffffffffffffffffffffffffffffffff166040518363ffffffff1660e01b81526004016104db9291906115d8565b602060405180830381865afa1580156104f8573d6000803e3d6000fd5b505050506040513d601f19601f8201168201806040525081019061051c9190611616565b101561060657600260009054906101000a900473ffffffffffffffffffffffffffffffffffffffff1673ffffffffffffffffffffffffffffffffffffffff1663095ea7b3600160009054906101000a900473ffffffffffffffffffffffffffffffffffffffff167fffffffffffffffffffffffffffffffffffffffffffffffffffffffffffffffff6040518363ffffffff1660e01b81526004016105c1929190611643565b6020604051808303816000875af11580156105e0573d6000803e3d6000fd5b505050506040513d601f19601f8201168201806040525081019061060491906116a4565b505b600160009054906101000a900473ffffffffffffffffffffffffffffffffffffffff1673ffffffffffffffffffffffffffffffffffffffff166304e45aaf6040518060e00160405280600260009054906101000a900473ffffffffffffffffffffffffffffffffffffffff1673ffffffffffffffffffffffffffffffffffffffff1681526020018a73ffffffffffffffffffffffffffffffffffffffff1681526020018962ffffff1681526020018773ffffffffffffffffffffffffffffffffffffffff168152602001848152602001888152602001600073ffffffffffffffffffffffffffffffffffffffff168152506040518263ffffffff1660e01b8152600401610713919061179b565b6020604051808303816000875af1158015610732573d6000803e3d6000fd5b505050506040513d601f19601f820116820180604052508101906107569190611616565b92508673ffffffffffffffffffffffffffffffffffffffff168473ffffffffffffffffffffffffffffffffffffffff167f4a179a798aae7b667a57d4131a74ac237388c46efd74875a1fa82f5bc9e4a6d53486866040516107b9939291906117b6565b60405180910390a35050949350505050565b60008573ffffffffffffffffffffffffffffffffffffffff166323b872dd3330876040518463ffffffff1660e01b815260040161080a939291906117ed565b6020604051808303816000875af1158015610829573d6000803e3d6000fd5b505050506040513d601f19601f8201168201806040525081019061084d91906116a4565b61088c576040517f08c379a000000000000000000000000000000000000000000000000000000000815260040161088390611870565b60405180910390fd5b8573ffffffffffffffffffffffffffffffffffffffff1663095ea7b3600160009054906101000a900473ffffffffffffffffffffffffffffffffffffffff16866040518363ffffffff1660e01b81526004016108e9929190611643565b6020604051808303816000875af1158015610908573d6000803e3d6000fd5b505050506040513d601f19601f8201168201806040525081019061092c91906116a4565b506000600160009054906101000a900473ffffffffffffffffffffffffffffffffffffffff1673ffffffffffffffffffffffffffffffffffffffff166304e45aaf6040518060e001604052808a73ffffffffffffffffffffffffffffffffffffffff168152602001600260009054906101000a900473ffffffffffffffffffffffffffffffffffffffff1673ffffffffffffffffffffffffffffffffffffffff1681526020018962ffffff1681526020013073ffffffffffffffffffffffffffffffffffffffff168152602001888152602001878152602001600073ffffffffffffffffffffffffffffffffffffffff168152506040518263ffffffff1660e01b8152600401610a3c919061179b565b6020604051808303816000875af1158015610a5b573d6000803e3d6000fd5b505050506040513d601f19601f82011682018060405250810190610a7f9190611616565b9050600061271060045483610a949190611450565b610a9e91906114c1565b905060008183610aae91906114f2565b9050600260009054906101000a900473ffffffffffffffffffffffffffffffffffffffff1673ffffffffffffffffffffffffffffffffffffffff16632e1a7d4d846040518263ffffffff1660e01b8152600401610b0b9190611159565b600060405180830381600087803b158015610b2557600080fd5b505af1158015610b39573d6000803e3d6000fd5b505050506000821115610c16576000600360009054906101000a900473ffffffffffffffffffffffffffffffffffffffff1673ffffffffffffffffffffffffffffffffffffffff1683604051610b8e90611557565b60006040518083038185875af1925050503d8060008114610bcb576040519150601f19603f3d011682016040523d82523d6000602084013e610bd0565b606091505b5050905080610c14576040517f08c379a0000000000000000000000000000000000000000000000000000000008152600401610c0b906115b8565b60405180910390fd5b505b60008573ffffffffffffffffffffffffffffffffffffffff1682604051610c3c90611557565b60006040518083038185875af1925050503d8060008114610c79576040519150601f19603f3d011682016040523d82523d6000602084013e610c7e565b606091505b5050905080610cc2576040517f08c379a0000000000000000000000000000000000000000000000000000000008152600401610cb9906118dc565b60405180910390fd5b8194508973ffffffffffffffffffffffffffffffffffffffff168673ffffffffffffffffffffffffffffffffffffffff167fa0fe9740856690637d999c103293d3c823fc3b81443c34c6004bb582ab4b61668a8887604051610d26939291906117b6565b60405180910390a35050505095945050505050565b60008054906101000a900473ffffffffffffffffffffffffffffffffffffffff1673ffffffffffffffffffffffffffffffffffffffff163373ffffffffffffffffffffffffffffffffffffffff1614610dc9576040517f08c379a0000000000000000000000000000000000000000000000000000000008152600401610dc090611948565b60405180910390fd5b6101f4811115610e0e576040517f08c379a0000000000000000000000000000000000000000000000000000000008152600401610e05906119b4565b60405180910390fd5b806004819055507f8c4d35e54a3f2ef1134138fd8ea3daee6a3c89e10d2665996babdf70261e2c7681604051610e449190611159565b60405180910390a150565b600260009054906101000a900473ffffffffffffffffffffffffffffffffffffffff1681565b60008054906101000a900473ffffffffffffffffffffffffffffffffffffffff1681565b60008054906101000a900473ffffffffffffffffffffffffffffffffffffffff1673ffffffffffffffffffffffffffffffffffffffff163373ffffffffffffffffffffffffffffffffffffffff1614610f27576040517f08c379a0000000000000000000000000000000000000000000000000000000008152600401610f1e90611948565b60405180910390fd5b600073ffffffffffffffffffffffffffffffffffffffff168173ffffffffffffffffffffffffffffffffffffffff1603610f96576040517f08c379a0000000000000000000000000000000000000000000000000000000008152600401610f8d90611a20565b60405180910390fd5b80600360006101000a81548173ffffffffffffffffffffffffffffffffffffffff021916908373ffffffffffffffffffffffffffffffffffffffff16021790555050565b60008054906101000a900473ffffffffffffffffffffffffffffffffffffffff1673ffffffffffffffffffffffffffffffffffffffff163373ffffffffffffffffffffffffffffffffffffffff1614611068576040517f08c379a000000000000000000000000000000000000000000000000000000000815260040161105f90611948565b60405180910390fd5b600073ffffffffffffffffffffffffffffffffffffffff168173ffffffffffffffffffffffffffffffffffffffff16036110d7576040517f08c379a00000000000000000000000000000000000000000000000000000000081526004016110ce90611a20565b60405180910390fd5b806000806101000a81548173ffffffffffffffffffffffffffffffffffffffff021916908373ffffffffffffffffffffffffffffffffffffffff16021790555050565b600160009054906101000a900473ffffffffffffffffffffffffffffffffffffffff1681565b6000819050919050565b61115381611140565b82525050565b600060208201905061116e600083018461114a565b92915050565b600073ffffffffffffffffffffffffffffffffffffffff82169050919050565b600061119f82611174565b9050919050565b6111af81611194565b82525050565b60006020820190506111ca60008301846111a6565b92915050565b600080fd5b6111de81611194565b81146111e957600080fd5b50565b6000813590506111fb816111d5565b92915050565b600062ffffff82169050919050565b61121981611201565b811461122457600080fd5b50565b60008135905061123681611210565b92915050565b61124581611140565b811461125057600080fd5b50565b6000813590506112628161123c565b92915050565b60008060008060808587031215611282576112816111d0565b5b6000611290878288016111ec565b94505060206112a187828801611227565b93505060406112b287828801611253565b92505060606112c3878288016111ec565b91505092959194509250565b600080600080600060a086880312156112eb576112ea6111d0565b5b60006112f9888289016111ec565b955050602061130a88828901611227565b945050604061131b88828901611253565b935050606061132c88828901611253565b925050608061133d888289016111ec565b9150509295509295909350565b6000602082840312156113605761135f6111d0565b5b600061136e84828501611253565b91505092915050565b60006020828403121561138d5761138c6111d0565b5b600061139b848285016111ec565b91505092915050565b600082825260208201905092915050565b7f4e6f204d4f4e2073656e74000000000000000000000000000000000000000000600082015250565b60006113eb600b836113a4565b91506113f6826113b5565b602082019050919050565b6000602082019050818103600083015261141a816113de565b9050919050565b7f4e487b7100000000000000000000000000000000000000000000000000000000600052601160045260246000fd5b600061145b82611140565b915061146683611140565b925082820261147481611140565b9150828204841483151761148b5761148a611421565b5b5092915050565b7f4e487b7100000000000000000000000000000000000000000000000000000000600052601260045260246000fd5b60006114cc82611140565b91506114d783611140565b9250826114e7576114e6611492565b5b828204905092915050565b60006114fd82611140565b915061150883611140565b92508282039050818111156115205761151f611421565b5b92915050565b600081905092915050565b50565b6000611541600083611526565b915061154c82611531565b600082019050919050565b600061156282611534565b9150819050919050565b7f466565207472616e73666572206661696c656400000000000000000000000000600082015250565b60006115a26013836113a4565b91506115ad8261156c565b602082019050919050565b600060208201905081810360008301526115d181611595565b9050919050565b60006040820190506115ed60008301856111a6565b6115fa60208301846111a6565b9392505050565b6000815190506116108161123c565b92915050565b60006020828403121561162c5761162b6111d0565b5b600061163a84828501611601565b91505092915050565b600060408201905061165860008301856111a6565b611665602083018461114a565b9392505050565b60008115159050919050565b6116818161166c565b811461168c57600080fd5b50565b60008151905061169e81611678565b92915050565b6000602082840312156116ba576116b96111d0565b5b60006116c88482850161168f565b91505092915050565b6116da81611194565b82525050565b6116e981611201565b82525050565b6116f881611140565b82525050565b61170781611174565b82525050565b60e08201600082015161172360008501826116d1565b50602082015161173660208501826116d1565b50604082015161174960408501826116e0565b50606082015161175c60608501826116d1565b50608082015161176f60808501826116ef565b5060a082015161178260a08501826116ef565b5060c082015161179560c08501826116fe565b50505050565b600060e0820190506117b0600083018461170d565b92915050565b60006060820190506117cb600083018661114a565b6117d8602083018561114a565b6117e5604083018461114a565b949350505050565b600060608201905061180260008301866111a6565b61180f60208301856111a6565b61181c604083018461114a565b949350505050565b7f5472616e73666572206661696c65640000000000000000000000000000000000600082015250565b600061185a600f836113a4565b915061186582611824565b602082019050919050565b600060208201905081810360008301526118898161184d565b9050919050565b7f55736572207472616e73666572206661696c6564000000000000000000000000600082015250565b60006118c66014836113a4565b91506118d182611890565b602082019050919050565b600060208201905081810360008301526118f5816118b9565b9050919050565b7f4e6f74206f776e65720000000000000000000000000000000000000000000000600082015250565b60006119326009836113a4565b915061193d826118fc565b602082019050919050565b6000602082019050818103600083015261196181611925565b9050919050565b7f4d61782035250000000000000000000000000000000000000000000000000000600082015250565b600061199e6006836113a4565b91506119a982611968565b602082019050919050565b600060208201905081810360008301526119cd81611991565b9050919050565b7f5a65726f20616464726573730000000000000000000000000000000000000000600082015250565b6000611a0a600c836113a4565b9150611a15826119d4565b602082019050919050565b60006020820190508181036000830152611a39816119fd565b905091905056fea264697066735822122001b39359209c8bf85ac9429b9d539c41f930d09d904100331ce65aef1fe25d1964736f6c634300081c0033",
  "linkReferences": {},
  "deployedLinkReferences": {}
}